{
  "contractName": "SplitPayment",
  "abi": [
    {
      "inputs": [
        {
          "internalType": "address",
          "name": "_owner",
          "type": "address"
        }
      ],
      "stateMutability": "nonpayable",
      "type": "constructor"
    },
    {
      "inputs": [
        {
          "internalType": "address payable[]",
          "name": "to",
          "type": "address[]"
        },
        {
          "internalType": "uint256[]",
          "name": "amount",
          "type": "uint256[]"
        }
      ],
      "name": "send",
      "outputs": [],
      "stateMutability": "payable",
      "type": "function",
      "payable": true
    }
  ],
  "bytecode": "0x608060405234801561001057600080fd5b506040516107193803806107198339818101604052810190610032919061008d565b806000806101000a81548173ffffffffffffffffffffffffffffffffffffffff021916908373ffffffffffffffffffffffffffffffffffffffff160217905550506100ff565b600081519050610087816100e8565b92915050565b60006020828403121561009f57600080fd5b60006100ad84828501610078565b91505092915050565b60006100c1826100c8565b9050919050565b600073ffffffffffffffffffffffffffffffffffffffff82169050919050565b6100f1816100b6565b81146100fc57600080fd5b50565b61060b8061010e6000396000f3fe60806040526004361061001e5760003560e01c8063a645ff5f14610023575b600080fd5b61003d6004803603810190610038919061031c565b61003f565b005b60008054906101000a900473ffffffffffffffffffffffffffffffffffffffff1673ffffffffffffffffffffffffffffffffffffffff163373ffffffffffffffffffffffffffffffffffffffff161461009757600080fd5b80518251146100db576040517f08c379a00000000000000000000000000000000000000000000000000000000081526004016100d2906103ab565b60405180910390fd5b60005b82518110156101c157828181518110610120577f4e487b7100000000000000000000000000000000000000000000000000000000600052603260045260246000fd5b602002602001015173ffffffffffffffffffffffffffffffffffffffff166108fc83838151811061017a577f4e487b7100000000000000000000000000000000000000000000000000000000600052603260045260246000fd5b60200260200101519081150290604051600060405180830381858888f193505050501580156101ad573d6000803e3d6000fd5b5080806101b9906104c6565b9150506100de565b505050565b60006101d96101d4846103f0565b6103cb565b905080838252602082019050828560208602820111156101f857600080fd5b60005b85811015610228578161020e888261029e565b8452602084019350602083019250506001810190506101fb565b5050509392505050565b60006102456102408461041c565b6103cb565b9050808382526020820190508285602086028201111561026457600080fd5b60005b85811015610294578161027a8882610307565b845260208401935060208301925050600181019050610267565b5050509392505050565b6000813590506102ad816105a7565b92915050565b600082601f8301126102c457600080fd5b81356102d48482602086016101c6565b91505092915050565b600082601f8301126102ee57600080fd5b81356102fe848260208601610232565b91505092915050565b600081359050610316816105be565b92915050565b6000806040838503121561032f57600080fd5b600083013567ffffffffffffffff81111561034957600080fd5b610355858286016102b3565b925050602083013567ffffffffffffffff81111561037257600080fd5b61037e858286016102dd565b9150509250929050565b6000610395602083610448565b91506103a08261057e565b602082019050919050565b600060208201905081810360008301526103c481610388565b9050919050565b60006103d56103e6565b90506103e18282610495565b919050565b6000604051905090565b600067ffffffffffffffff82111561040b5761040a61053e565b5b602082029050602081019050919050565b600067ffffffffffffffff8211156104375761043661053e565b5b602082029050602081019050919050565b600082825260208201905092915050565b60006104648261046b565b9050919050565b600073ffffffffffffffffffffffffffffffffffffffff82169050919050565b6000819050919050565b61049e8261056d565b810181811067ffffffffffffffff821117156104bd576104bc61053e565b5b80604052505050565b60006104d18261048b565b91507fffffffffffffffffffffffffffffffffffffffffffffffffffffffffffffffff8214156105045761050361050f565b5b600182019050919050565b7f4e487b7100000000000000000000000000000000000000000000000000000000600052601160045260246000fd5b7f4e487b7100000000000000000000000000000000000000000000000000000000600052604160045260246000fd5b6000601f19601f8301169050919050565b7f746f206d7573742062652073616d65206c656e67746820617320616d6f756e74600082015250565b6105b081610459565b81146105bb57600080fd5b50565b6105c78161048b565b81146105d257600080fd5b5056fea26469706673582212200063c93baacc26576b5ffec32a0297bc093d00769ab6093a9ff0069e40aa4c9264736f6c63430008030033",
  "immutableReferences": {},
  "source": "// SPDX-License-Identifier: MIT\npragma solidity >=0.4.22 <0.9.0;\n\ncontract SplitPayment {\n  address owner;\n  \n  constructor(address _owner)  {\n      owner = _owner; \n  }\n  \n  function send(address payable[] memory to, uint[] memory amount ) \n    payable \n    public \n    ownerOnly {\n    require(to.length == amount.length, 'to must be same length as amount');\n    for(uint i = 0; i < to.length; i++) {\n      to[i].transfer(amount[i]);\n    }\n  }\n  \n  modifier ownerOnly() {\n    require(msg.sender == owner);\n    _;\n  }\n}\n",
  "sourcePath": "/var/www/ethereum/eat/5DAPP/7_Split_payment/contracts/SplitPayment.sol",
  "compiler": {
    "name": "solc",
    "version": "0.8.3+commit.8d00100c.Emscripten.clang"
  },
  "schemaVersion": "3.3.4",
  "updatedAt": "2021-04-26T08:20:59.092Z",
  "networkType": "ethereum",
  "devdoc": {
    "kind": "dev",
    "methods": {},
    "version": 1
  },
  "userdoc": {
    "kind": "user",
    "methods": {},
    "version": 1
  }
}