{
  "contractName": "Deed",
  "abi": [
    {
      "inputs": [
        {
          "internalType": "address",
          "name": "_lawyer",
          "type": "address"
        },
        {
          "internalType": "address payable",
          "name": "_beneficiary",
          "type": "address"
        },
        {
          "internalType": "uint256",
          "name": "fromNow",
          "type": "uint256"
        }
      ],
      "stateMutability": "payable",
      "type": "constructor",
      "payable": true
    },
    {
      "inputs": [],
      "name": "beneficiary",
      "outputs": [
        {
          "internalType": "address payable",
          "name": "",
          "type": "address"
        }
      ],
      "stateMutability": "view",
      "type": "function",
      "constant": true
    },
    {
      "inputs": [],
      "name": "earliest",
      "outputs": [
        {
          "internalType": "uint256",
          "name": "",
          "type": "uint256"
        }
      ],
      "stateMutability": "view",
      "type": "function",
      "constant": true
    },
    {
      "inputs": [],
      "name": "lawyer",
      "outputs": [
        {
          "internalType": "address",
          "name": "",
          "type": "address"
        }
      ],
      "stateMutability": "view",
      "type": "function",
      "constant": true
    },
    {
      "inputs": [],
      "name": "withdraw",
      "outputs": [],
      "stateMutability": "nonpayable",
      "type": "function"
    }
  ],
  "bytecode": "0x60806040526040516106a33803806106a3833981810160405281019061002591906100ff565b826000806101000a81548173ffffffffffffffffffffffffffffffffffffffff021916908373ffffffffffffffffffffffffffffffffffffffff16021790555081600160006101000a81548173ffffffffffffffffffffffffffffffffffffffff021916908373ffffffffffffffffffffffffffffffffffffffff16021790555080426100b2919061014e565b600281905550505050610266565b6000815190506100cf81610221565b92915050565b6000815190506100e481610238565b92915050565b6000815190506100f98161024f565b92915050565b60008060006060848603121561011457600080fd5b6000610122868287016100c0565b9350506020610133868287016100d5565b9250506040610144868287016100ea565b9150509250925092565b6000610159826101e8565b9150610164836101e8565b9250827fffffffffffffffffffffffffffffffffffffffffffffffffffffffffffffffff03821115610199576101986101f2565b5b828201905092915050565b60006101af826101c8565b9050919050565b60006101c1826101c8565b9050919050565b600073ffffffffffffffffffffffffffffffffffffffff82169050919050565b6000819050919050565b7f4e487b7100000000000000000000000000000000000000000000000000000000600052601160045260246000fd5b61022a816101a4565b811461023557600080fd5b50565b610241816101b6565b811461024c57600080fd5b50565b610258816101e8565b811461026357600080fd5b50565b61042e806102756000396000f3fe608060405234801561001057600080fd5b506004361061004c5760003560e01c806338af3eed146100515780633bfb6e311461006f5780633ccfd60b1461008d5780635dd65d3b14610097575b600080fd5b6100596100b5565b60405161006691906102d1565b60405180910390f35b6100776100db565b60405161008491906102b6565b60405180910390f35b6100956100ff565b005b61009f61023d565b6040516100ac919061032c565b60405180910390f35b600160009054906101000a900473ffffffffffffffffffffffffffffffffffffffff1681565b60008054906101000a900473ffffffffffffffffffffffffffffffffffffffff1681565b60008054906101000a900473ffffffffffffffffffffffffffffffffffffffff1673ffffffffffffffffffffffffffffffffffffffff163373ffffffffffffffffffffffffffffffffffffffff161461018d576040517f08c379a0000000000000000000000000000000000000000000000000000000008152600401610184906102ec565b60405180910390fd5b6002544210156101d2576040517f08c379a00000000000000000000000000000000000000000000000000000000081526004016101c99061030c565b60405180910390fd5b600160009054906101000a900473ffffffffffffffffffffffffffffffffffffffff1673ffffffffffffffffffffffffffffffffffffffff166108fc479081150290604051600060405180830381858888f1935050505015801561023a573d6000803e3d6000fd5b50565b60025481565b61024c8161036a565b82525050565b61025b81610358565b82525050565b600061026e600b83610347565b9150610279826103a6565b602082019050919050565b6000610291600983610347565b915061029c826103cf565b602082019050919050565b6102b08161039c565b82525050565b60006020820190506102cb6000830184610252565b92915050565b60006020820190506102e66000830184610243565b92915050565b6000602082019050818103600083015261030581610261565b9050919050565b6000602082019050818103600083015261032581610284565b9050919050565b600060208201905061034160008301846102a7565b92915050565b600082825260208201905092915050565b60006103638261037c565b9050919050565b60006103758261037c565b9050919050565b600073ffffffffffffffffffffffffffffffffffffffff82169050919050565b6000819050919050565b7f6c6177796572206f6e6c79000000000000000000000000000000000000000000600082015250565b7f746f6f206561726c79000000000000000000000000000000000000000000000060008201525056fea2646970667358221220e62ea176fbd1c94057b1410b88696e2cf45b2a9392862aa59f75f51221d063ec64736f6c63430008030033",
  "immutableReferences": {},
  "source": "// SPDX-License-Identifier: MIT\npragma solidity >=0.4.22 <0.9.0;\n\ncontract Deed {\n  address public lawyer;\n  address payable public beneficiary;\n  uint public earliest;\n\n  constructor(\n    address _lawyer, \n    address payable _beneficiary, \n    uint fromNow) \n    payable {\n    lawyer = _lawyer;\n    beneficiary = _beneficiary; \n    earliest = block.timestamp + fromNow;\n  }\n\n  function withdraw() public {\n    require(msg.sender == lawyer, 'lawyer only');\n    require(block.timestamp >= earliest, 'too early');\n    beneficiary.transfer(address(this).balance);\n  }\n}\n",
  "sourcePath": "/var/www/ethereum/eat/5DAPP/8_Deed/contracts/Deed.sol",
  "compiler": {
    "name": "solc",
    "version": "0.8.3+commit.8d00100c.Emscripten.clang"
  },
  "schemaVersion": "3.3.4",
  "updatedAt": "2021-04-26T10:35:56.395Z",
  "networkType": "ethereum",
  "devdoc": {
    "kind": "dev",
    "methods": {},
    "version": 1
  },
  "userdoc": {
    "kind": "user",
    "methods": {},
    "version": 1
  }
}