{
  "contractName": "DeedMultiPayouts",
  "abi": [
    {
      "inputs": [
        {
          "internalType": "address",
          "name": "_lawyer",
          "type": "address"
        },
        {
          "internalType": "address payable",
          "name": "_beneficiary",
          "type": "address"
        },
        {
          "internalType": "uint256",
          "name": "fromNow",
          "type": "uint256"
        }
      ],
      "stateMutability": "payable",
      "type": "constructor",
      "payable": true
    },
    {
      "inputs": [],
      "name": "INTERVAL",
      "outputs": [
        {
          "internalType": "uint256",
          "name": "",
          "type": "uint256"
        }
      ],
      "stateMutability": "view",
      "type": "function",
      "constant": true
    },
    {
      "inputs": [],
      "name": "PAYOUTS",
      "outputs": [
        {
          "internalType": "uint256",
          "name": "",
          "type": "uint256"
        }
      ],
      "stateMutability": "view",
      "type": "function",
      "constant": true
    },
    {
      "inputs": [],
      "name": "amount",
      "outputs": [
        {
          "internalType": "uint256",
          "name": "",
          "type": "uint256"
        }
      ],
      "stateMutability": "view",
      "type": "function",
      "constant": true
    },
    {
      "inputs": [],
      "name": "beneficiary",
      "outputs": [
        {
          "internalType": "address payable",
          "name": "",
          "type": "address"
        }
      ],
      "stateMutability": "view",
      "type": "function",
      "constant": true
    },
    {
      "inputs": [],
      "name": "earliest",
      "outputs": [
        {
          "internalType": "uint256",
          "name": "",
          "type": "uint256"
        }
      ],
      "stateMutability": "view",
      "type": "function",
      "constant": true
    },
    {
      "inputs": [],
      "name": "lawyer",
      "outputs": [
        {
          "internalType": "address",
          "name": "",
          "type": "address"
        }
      ],
      "stateMutability": "view",
      "type": "function",
      "constant": true
    },
    {
      "inputs": [],
      "name": "paidPayouts",
      "outputs": [
        {
          "internalType": "uint256",
          "name": "",
          "type": "uint256"
        }
      ],
      "stateMutability": "view",
      "type": "function",
      "constant": true
    },
    {
      "inputs": [],
      "name": "withdraw",
      "outputs": [],
      "stateMutability": "nonpayable",
      "type": "function"
    }
  ],
  "bytecode": "0x608060405260405162000abb38038062000abb833981810160405281019062000029919062000121565b826000806101000a81548173ffffffffffffffffffffffffffffffffffffffff021916908373ffffffffffffffffffffffffffffffffffffffff16021790555081600160006101000a81548173ffffffffffffffffffffffffffffffffffffffff021916908373ffffffffffffffffffffffffffffffffffffffff1602179055508042620000b8919062000177565b600281905550600a34620000cd9190620001d4565b6003819055505050506200030a565b600081519050620000ed81620002bc565b92915050565b6000815190506200010481620002d6565b92915050565b6000815190506200011b81620002f0565b92915050565b6000806000606084860312156200013757600080fd5b60006200014786828701620000dc565b93505060206200015a86828701620000f3565b92505060406200016d868287016200010a565b9150509250925092565b6000620001848262000254565b9150620001918362000254565b9250827fffffffffffffffffffffffffffffffffffffffffffffffffffffffffffffffff03821115620001c957620001c86200025e565b5b828201905092915050565b6000620001e18262000254565b9150620001ee8362000254565b9250826200020157620002006200028d565b5b828204905092915050565b6000620002198262000234565b9050919050565b60006200022d8262000234565b9050919050565b600073ffffffffffffffffffffffffffffffffffffffff82169050919050565b6000819050919050565b7f4e487b7100000000000000000000000000000000000000000000000000000000600052601160045260246000fd5b7f4e487b7100000000000000000000000000000000000000000000000000000000600052601260045260246000fd5b620002c7816200020c565b8114620002d357600080fd5b50565b620002e18162000220565b8114620002ed57600080fd5b50565b620002fb8162000254565b81146200030757600080fd5b50565b6107a1806200031a6000396000f3fe608060405234801561001057600080fd5b50600436106100885760003560e01c80634a8a7ce31161005b5780634a8a7ce3146100f15780635dd65d3b1461010f57806389facb201461012d578063aa8c217c1461014b57610088565b80632be521461461008d57806338af3eed146100ab5780633bfb6e31146100c95780633ccfd60b146100e7575b600080fd5b610095610169565b6040516100a29190610503565b60405180910390f35b6100b361016e565b6040516100c09190610488565b60405180910390f35b6100d1610194565b6040516100de919061046d565b60405180910390f35b6100ef6101b8565b005b6100f96103c0565b6040516101069190610503565b60405180910390f35b6101176103c6565b6040516101249190610503565b60405180910390f35b6101356103cc565b6040516101429190610503565b60405180910390f35b6101536103d1565b6040516101609190610503565b60405180910390f35b600a81565b600160009054906101000a900473ffffffffffffffffffffffffffffffffffffffff1681565b60008054906101000a900473ffffffffffffffffffffffffffffffffffffffff1681565b60008054906101000a900473ffffffffffffffffffffffffffffffffffffffff1673ffffffffffffffffffffffffffffffffffffffff163373ffffffffffffffffffffffffffffffffffffffff1614610246576040517f08c379a000000000000000000000000000000000000000000000000000000000815260040161023d906104c3565b60405180910390fd5b60025442101561028b576040517f08c379a0000000000000000000000000000000000000000000000000000000008152600401610282906104e3565b60405180910390fd5b600a600454106102d0576040517f08c379a00000000000000000000000000000000000000000000000000000000081526004016102c7906104a3565b60405180910390fd5b6000600a600254426102e29190610610565b6102ec9190610585565b90506000600454826102fe9190610610565b9050600a60045482610310919061052f565b1161031b578061032b565b600454600a61032a9190610610565b5b9050806004600082825461033f919061052f565b92505081905550600160009054906101000a900473ffffffffffffffffffffffffffffffffffffffff1673ffffffffffffffffffffffffffffffffffffffff166108fc6003548361039091906105b6565b9081150290604051600060405180830381858888f193505050501580156103bb573d6000803e3d6000fd5b505050565b60045481565b60025481565b600a81565b60035481565b6103e081610656565b82525050565b6103ef81610644565b82525050565b6000610402600e8361051e565b915061040d826106f0565b602082019050919050565b6000610425600b8361051e565b915061043082610719565b602082019050919050565b600061044860098361051e565b915061045382610742565b602082019050919050565b61046781610688565b82525050565b600060208201905061048260008301846103e6565b92915050565b600060208201905061049d60008301846103d7565b92915050565b600060208201905081810360008301526104bc816103f5565b9050919050565b600060208201905081810360008301526104dc81610418565b9050919050565b600060208201905081810360008301526104fc8161043b565b9050919050565b6000602082019050610518600083018461045e565b92915050565b600082825260208201905092915050565b600061053a82610688565b915061054583610688565b9250827fffffffffffffffffffffffffffffffffffffffffffffffffffffffffffffffff0382111561057a57610579610692565b5b828201905092915050565b600061059082610688565b915061059b83610688565b9250826105ab576105aa6106c1565b5b828204905092915050565b60006105c182610688565b91506105cc83610688565b9250817fffffffffffffffffffffffffffffffffffffffffffffffffffffffffffffffff048311821515161561060557610604610692565b5b828202905092915050565b600061061b82610688565b915061062683610688565b92508282101561063957610638610692565b5b828203905092915050565b600061064f82610668565b9050919050565b600061066182610668565b9050919050565b600073ffffffffffffffffffffffffffffffffffffffff82169050919050565b6000819050919050565b7f4e487b7100000000000000000000000000000000000000000000000000000000600052601160045260246000fd5b7f4e487b7100000000000000000000000000000000000000000000000000000000600052601260045260246000fd5b7f6e6f207061796f7574206c656674000000000000000000000000000000000000600082015250565b7f6c6177796572206f6e6c79000000000000000000000000000000000000000000600082015250565b7f746f6f206561726c79000000000000000000000000000000000000000000000060008201525056fea26469706673582212203b5f818dfa41c65bf20dcb5500db8fc0f01026339f4f34604ceec57fae4e9ccb64736f6c63430008030033",
  "immutableReferences": {},
  "source": "// SPDX-License-Identifier: MIT\npragma solidity >=0.4.22 <0.9.0;\n\ncontract DeedMultiPayouts {\n  address public lawyer;\n  address payable public beneficiary;\n  uint public earliest;\n  uint public amount;\n  uint constant public PAYOUTS = 10;\n  uint constant public INTERVAL = 10;\n  uint public paidPayouts;\n  \n  constructor(\n    address _lawyer,\n    address payable _beneficiary,\n    uint fromNow)\n    payable\n     {\n        lawyer = _lawyer;\n        beneficiary = _beneficiary;\n        earliest = block.timestamp + fromNow;\n        amount = msg.value / PAYOUTS;\n    }\n  \n  function withdraw() public {\n    //require(msg.sender == beneficiary, 'beneficiary only');\n    require(msg.sender == lawyer, 'lawyer only');\n    require(block.timestamp >= earliest, 'too early');\n    require(paidPayouts < PAYOUTS, 'no payout left');\n    \n    /*\n    beneficiary.transfer(amount);\n    paidPayouts += 1;\n*/\n\n    \n    uint elligiblePayouts = (block.timestamp - earliest) / INTERVAL;  //1619510605 - 1619510665 = -6\n    uint duePayouts = elligiblePayouts - paidPayouts; //-6 - 0 = -6\n    duePayouts = duePayouts + paidPayouts > PAYOUTS ? PAYOUTS - paidPayouts : duePayouts; // -6 + 0 > 10 ? 10 - 0 : -6\n    paidPayouts += duePayouts;\n    beneficiary.transfer(duePayouts * amount);\n  \n     }\n}\n",
  "sourcePath": "/var/www/ethereum/eat/5DAPP/9_Deed_multi_payouts/contracts/DeedMultiPayouts.sol",
  "compiler": {
    "name": "solc",
    "version": "0.8.3+commit.8d00100c.Emscripten.clang"
  },
  "schemaVersion": "3.3.4",
  "updatedAt": "2021-04-27T09:00:06.068Z",
  "networkType": "ethereum",
  "devdoc": {
    "kind": "dev",
    "methods": {},
    "version": 1
  },
  "userdoc": {
    "kind": "user",
    "methods": {},
    "version": 1
  }
}